:020000040000FA
:10000000012883160313FF308500870186018801CC
:10001000831203139E01B901BA01BB013830BD2020
:100020000E30BD200230BD200130BD204130C52042
:100030008130BD203A30C5208330BD203030C5200E
:100040008B30BD204230C5208C30BD203A30C520D9
:100050008E30BD203030C520C630BD204330C52095
:10006000C730BD203A30C520C930BD203030C52052
:1000700000309F008312031341309F009D201F1505
:100080000C1F40280C131E08A40039082402031D6D
:10009000CD202408B90049309F009D201F150C1F5A
:1000A0004F280C131E08A2003A082202031DF72055
:1000B0002208BA008312031351309F009D201F15A0
:1000C0000C1F60280C131E08A5003B082502031D09
:1000D0001C212508BB00FA30A3000714A30B6D28D0
:1000E00000000000000000000000A40B70280710B2
:1000F000FA30A3008714A30B7A2800000000000048
:1001000000000000A20B7D288710FA30A30007151D
:10011000A30B872800000000000000000000A50BD2
:100120008A28071194203A28FF30A7001230A60031
:10013000A60B9828A70B96280800831203132030DB
:10014000AB00AB0BA128080064302B02031CAB28CA
:10015000AB00B60AA4280A302B02031CB228AB005D
:10016000B70AAB282B08B80008001030A900AA0174
:10017000AA0BB828A90BB828080088000610061595
:10018000000006118610B520080088000614061528
:10019000000006118610B5200800B601B701B801AD
:1001A000AB01B001B1018230BD202B30C520240845
:1001B0003921B1001730B00031083107B00BDD280C
:1001C000AE00B4302E02031C4621AB00A4208330C5
:1001D000BD203608303EC5208430BD203708303E73
:1001E000C5208530BD203808303EC5200800B60146
:1001F000B701B801AB01B001B2018D30BD202B3089
:10020000C52022083921B2000730B0003208320779
:10021000B00B0729AF003C302F02031C5021AB006C
:10022000A4208E30BD203708303EC5208F30BD2041
:100230003808303EC5200800B601B701B801AB014F
:10024000B001B301C830BD202B30C52025083921AD
:10025000B3000310B30D3308AB00A420C930BD2098
:100260003708303EC520CA30BD203808303EC52092
:10027000080083120313B40011303402031C432915
:10028000B400AC0A3C292C08AC010800B500B50943
:10029000B50A8230BD202D30C5203508B5010800D3
:1002A000B500B509B50A8D30BD202D30C520350803
:0402B000B50108008C
:00000001FF
